:020000040800F2
:1000000000C60120013B0008490500084B05000817
:100010004F050008530500085705000800000000C0
:100020000000000000000000000000005B05000868
:100030005D050008000000005F050008610500087C
:100040001B3B00081B3B00081B3B00081B3B000838
:100050001B3B00081B3B00081B3B00081B3B000828
:100060001B3B00081B3B00081B3B00081B3B000818
:100070001B3B00081B3B00081B3B00081B3B000808
:100080001B3B00081B3B00081B3B00081B3B0008F8
:100090001B3B00081B3B00081B3B00081B3B0008E8
:1000A0001B3B00081B3B00081B3B00081B3B0008D8
:1000B0001B3B00081B3B0008216500081B3B000898
:1000C0001B3B00081B3B00081B3B00081B3B0008B8
:1000D0001B3B00084B3A00081B3B00081B3B000879
:1000E0001B3B00081B3B00081B3B00081B3B000898
:1000F0001B3B00081B3B00081B3B00081B3B000888
:100100001B3B0008252900081B3B00081B3B00087F
:100110001B3B00081B3B00081B3B00081B3B000867
:100120001B3B00081B3B00081B3B00081B3B000857
:100130001B3B00081B3B00081B3B00081B3B000847
:100140001B3B00081B3B00081B3B00081B3B000837
:100150001B3B00081B3B00081B3B00081B3B000827
:100160001B3B00081B3B00081B3B00081B3B000817
:100170001B3B00081B3B00081B3B00081B3B000807
:100180001B3B00081B3B000800F002F800F078F869
:100190000AA090E8000C82448344AAF10107DA45E2
:1001A00001D100F06DF8AFF2090EBAE80F0013F0BC
:1001B000010F18BFFB1A43F001031847847D0300A9
:1001C000A47D03000A444FF0000C10F8013B13F02B
:1001D000070408BF10F8014B1D1108BF10F8015BA0
:1001E000641E05D010F8016B641E01F8016BF9D193
:1001F00013F0080F1EBF10F8014BAD1C0C1B09D1EA
:100200006D1E58BF01F801CBFAD505E014F8016B5B
:1002100001F8016B6D1EF9D59142D6D370470000ED
:100220000023002400250026103A28BF78C1FBD8FF
:10023000520728BF30C148BF0B60704766290CF0D9
:10024000028464290AF0208775290AF01D8778291D
:100250000AF0568763290BF0F68373290BF0FB83B2
:10026000002070471FB50CF0E4FB0BF03DFC0400D0
:10027000002000210CF03EF9E0601FBD10B510BD5C
:100280000BF032FD1146FFF7EDFF00F011F80BF017
:1002900050FD03B4FFF7F2FF03BC03F077FB00004F
:1002A00030BF72B6704762B6704780F308887047F7
:1002B0002DE9F0432DED088BADF5377D4FF00009AA
:1002C000784E4FF4A06003F03BFCA82003F0D0FA76
:1002D0004FF4E13003F067FB1D2000F0ABFC00F0B1
:1002E00049FA714841685420884700F063FA0020B9
:1002F00005F0A3FE022005F0A0FE0EE06BA00AF0C0
:1003000051FE4FF4FA7003F015FB6D48006808B910
:10031000012000E000206A49086001F0D7FA0028B7
:10032000ECD1082000F0AAFCB0EE408A00F089FC75
:1003300000F0D1FC04460AE0642003F0FBFA6048B8
:10034000006808B9012000E000205D490860AD2C7C
:10035000F2D106F00BFF5B49012208685AA108F0B0
:1003600039FF0DE059A00AF01DFEC82003F0E2FAA3
:100370005348006808B9012000E000205049086097
:10038000B5AAB6A957A006F08DFF0028EAD156A05D
:100390000AF008FEB698810A56A00AF003FEB59846
:1003A000810A5BA00AF0FEFD6DE0B4ABB1AAB2A970
:1003B000B3A800F09FFC9DEDB40AB8EE400ADFED53
:1003C0005B0A30EE600ADFED5A0A80EE201A11EE69
:1003D000108A40460CF0BCFA41EC1A0B9FED550B0D
:1003E00053EC102B0CF0CEF841EC190B0CF098F8F4
:1003F00007469DEDB10AB8EEC00AC0EE080A10EE3D
:10040000908A40460CF0A4FA41EC190B9DEDB30A1A
:10041000B8EEC00AC0EE080A10EE908A40460CF012
:1004200097FA41EC1A0B9DEDB30AB8EEC00AC0EE84
:10043000080A10EE908A40460CF08AFA41EC1B0B39
:100440008DED029B8DED00AB53EC1B2B3BA191A8D6
:100450000AF0B4FD05461A48006808B9012000E01A
:100460000020174908600020029003900490059036
:10047000009003460190B19802B2B29801B2B398CD
:1004800000B202F08AFE3000A6F101068DD107A865
:1004900009F0B8F900200DF5377DBDEC088BBDE8FB
:1004A000F0830000A0860100600100205344204337
:1004B000617264204572726F72210D0A00000000A3
:1004C000A482424240BF0120303A000053442043FE
:1004D0006172642046617473204572726F72210DDF
:1004E0000A000000300000004641544653204F4BA4
:1004F000210D0A00534420546F74616C2053697AB3
:10050000653A202025642020204D420D0A0000007D
:1005100053442020467265652053697A653A20204D
:1005200025642020204D420D0A0000000080E74491
:10053000CDCC10C1000000000000394025663B25ED
:10054000663B25660D0A0000704700BFFEE700BF4E
:10055000FEE700BFFEE700BFFEE770477047704749
:10056000704700000CB500200190009076480068AC
:1005700040F480307449086000BF7348006800F49C
:10058000003000900198401C0190009818B9019823
:10059000B0F5A04FF1D16C48006800F4003010B104
:1005A0000120009001E0002000900098012846D131
:1005B00065484030006840F0805063494031086031
:1005C0006248006840F44040604908605E48083076
:1005D00000685D49083108600846006840F4004042
:1005E00008600846006840F4A05008605848091F99
:1005F0000860081F006840F08070091F086000BF95
:100600005148006800F000700028F9D040F20570F1
:10061000504908604C480830006820F003004A49FF
:10062000083108600846006840F00200086000BF1A
:1006300045480830006800F00C000828F8D10CBDCF
:1006400010B54548006840F47000434908603E48D2
:10065000006840F001003C49086000203A49083138
:100660000860394800683D490840374908603C48FF
:10067000091D0860081F006820F48020091F086019
:10068000002031490C310860FFF76CFF4FF000602B
:1006900031498039086010BD70B500200022022366
:1006A00000240221284D08352D6805F00C0020B1EA
:1006B000042806D0082834D107E02A4D2A4E356098
:1006C00033E02A4D284E35602FE01F4D2D1D2D683B
:1006D000C5F380541C4D2D1D2D6805F03F0154B10C
:1006E000224DB5FBF1F5184E361D3668C6F3881657
:1006F00005FB06F209E01B4DB5FBF1F5124E361D68
:100700003668C6F3881605FB06F20F4D2D1D2D68C1
:10071000C5F301456D1C6B00B2FBF3F5124E35605D
:1007200003E0104D104E356000BF00BF064D083588
:100730002D68C5F303150E4E705D0B4D2D68C54039
:10074000094E356070BD0000003802400070004066
:1007500008544007003C024088ED00E0FFFFF6FE31
:10076000103000240024F4000000002000127A0061
:10077000040000201CB50121202003F075FD4FF47A
:10078000C060009001208DF8040000208DF8060064
:1007900003208DF8050001208DF807006946044804
:1007A00003F0C4FA4FF4C061014803F03BFB1CBDE9
:1007B000001402401CB50121112003F055FD1C203E
:1007C000009000208DF8040003208DF80500012022
:1007D0008DF807006946354803F0A8FA012000901B
:1007E00002208DF807006946314803F09FFA1CBDCE
:1007F00010B5044614B101202E4908702D48007828
:10080000002837D01021294803F0F2FA78B10821E6
:10081000264803F0EDFA50B10421244803F0E8FA29
:1008200028B10121224803F0E3FA012822D10A204D
:1008300003F080F800201F49087010211B4803F0C6
:10084000D7FA08B9012010BD0821184803F0D0FAE2
:1008500008B90220F7E70421144803F0C9FA08B9DF
:100860000320F0E70121124803F0C2FA01281BD14E
:100870000420E8E710210D4803F0BAFA012813D14B
:1008800008210A4803F0B4FA01280DD104210748D1
:1008900003F0AEFA012807D10121054803F0A8FAB8
:1008A00010B90120034908700020CCE70010024075
:1008B00000000240140000201CB50121022003F0BA
:1008C000D3FC4FF44070009001208DF804008DF8A7
:1008D000060003208DF8050001208DF80700694609
:1008E000884803F023FA0120874908608749C1F846
:1008F000A4021CBD10B58348006820F44020814943
:1009000008600846006840F48020086001207E49A5
:10091000091D08607D49C1F8A002042002F0C2FF51
:1009200000207949091D0860042002F0BBFF002067
:100930007649C1F8A00210BD10B57248006820F4D5
:100940004020704908600846006840F48020086034
:1009500001206D49086000206C49C1F8A402042000
:1009600002F0A0FF01206849091D0860042002F080
:1009700099FF10BD10B500246248006820F44020A3
:100980006049086008460068086001205E49091D4A
:10099000086002F087FF01205C49C1F8A00202F064
:1009A00081FF07E0601CC4B2FA2C03DDFFF7C4FF2F
:1009B000012010BD54487C3800680028F2D152490B
:1009C000086000BFF5E710B500204F4908604D48AA
:1009D000006820F440204B4908600846006840F455
:1009E0008020086000204949C1F8A402022002F0DA
:1009F00059FF012044490860022002F053FF002003
:100A00004249C1F8A00210BD10B500203E4908605F
:100A10003C48006820F440203A49086008460068D5
:100A200040F48020086001203849C1F8A402022067
:100A300002F038FF012034490860022002F032FF42
:100A400000203249C1F8A00210BD70B504462D48FF
:100A5000006820F440202B4908600846006840F4F4
:100A600080200860002028490860002517E0E00980
:100A70002549091D08606006040E022002F012FFDD
:100A800001202249C1F8A002022002F00BFF002041
:100A90001D490860022002F005FF681CC5B2082D40
:100AA000E5DB70BD70B5054600241648006820F4EB
:100AB000402014490860084600680860002616E0D7
:100AC000002011490860022002F0ECFE01200F49CD
:100AD000C1F8A0026006040E0B487C38006808B11B
:100AE000601CC4B2022002F0DDFE701CC6B2082EEB
:100AF000E6DB15B9FFF788FF01E0FFF764FF20464A
:100B000070BD000000040240A082404200804042CC
:100B100070B504460025FFF7EDFE8C4909780022E8
:100B200042EA4101C8B2FFF790FFFFF723FF2046DA
:100B3000FFF78BFFFFF71EFFFFF7DCFE8349097805
:100B4000012202EB4101C8B2FFF77FFFFFF712FF5E
:100B50000020FFF7A7FF0546FFF7EEFE284670BD11
:100B600070B505460C46FFF7C5FE784909780022A6
:100B700042EA4101C8B2FFF768FFFFF7FBFE0646F5
:100B8000314673A00AF00EFA2846FFF75EFFFFF722
:100B9000F1FE064631466EA00AF004FA2046FFF741
:100BA00054FFFFF7E7FE0646314669A00AF0FAF95E
:100BB000FFF7C2FE0A2002F0BDFE70BD2DE9F04134
:100BC00005460E461746002409E0E20026FA02F226
:100BD000D1B22A19D0B2FFF7C3FF601CC4B2BC4225
:100BE000F3DBBDE8F0812DE9F04107460E46002514
:100BF000002407E02D023919C8B2FFF789FF054428
:100C0000601CC4B2B442F5DB2846BDE8F08108B5EB
:100C10000146002000900909C1F3130101F40020EE
:100C2000B0F5002F03D14E480843009000E000913A
:100C3000009808BD10B50446FFF73EFE4348047017
:100C400010BD10B500242D20FFF762FF0446214699
:100C500044A00AF0A7F904F0FE0421462D20FFF776
:100C60007FFF10BD10B52D20FFF752FF044644F062
:100C7000010421462D20FFF773FF10BD10B52DEDA7
:100C8000028B0446022C04D0042C09D0082C15D168
:100C90000DE081212C20FFF763FF9FED378A14E0E0
:100CA00082212C20FFF75CFF9FED348A0DE0832129
:100CB0002C20FFF755FF9FED328A06E081212C2082
:100CC000FFF74EFF9FED2C8A00BF00BFB0EE480A31
:100CD000BDEC028B10BD10B50020FFF719FF10BD51
:100CE00010B50120FFF714FF10BD10B50220FFF76B
:100CF0000FFF10BD2DE9FF4104460D4616461F4665
:100D000003210820FFF76FFF039003210B20FFF75B
:100D10006AFF029003210E20FFF765FF0190022178
:100D20000620FFF760FF00900098C0F30B003860CA
:100D30000398FFF76CFF20600298FFF768FF2860B8
:100D40000198FFF764FF3060BDE8FF8115000020C7
:100D5000775F61636B203D2025640D0A0000000071
:100D60000000F0FF75693874656D7020203D2030FB
:100D7000782532780D0A000000007A480000FA4712
:100D800000007A470020FE490860091D0860091D1F
:100D90000860091D0860FA4924310860091D0860CF
:100DA000091D0860F748F649383108600020091D20
:100DB0000860704701460020012900D011B9F24BAC
:100DC000197000E0262070470146ED4A121D106898
:100DD00020F0FF0008431060704770B5044606E03D
:100DE000E7483430056805F0450000B100E0F7E75A
:100DF00000BF042003F07EFE20B1042003F085FE36
:100E0000032070BD012003F075FE20B1012003F026
:100E10007CFE0120F5E7DA4810300068A04201D0DE
:100E20001020EEE740F2FF5003F06FFED44814307C
:100E3000006808210840C0B2E3E72DE9FC410746FD
:100E40000D46002600240020009001900820CF4984
:100E5000086010204860402088600020C8604FF47F
:100E600080600861084603F0B2FD1020FFF7B5FF6F
:100E7000044614B12046BDE8FC81C5480088000442
:100E8000C249086037204860402088600020C86060
:100E90004FF480600861084603F099FD3720FFF7A2
:100EA0009CFF04460CB12046E5E74FF0FF30B949FE
:100EB000086008204860302088600220C860002058
:100EC000086101204861084603F0ADFD0020AF49EC
:100ED000086033204860402088600020C8604FF4DC
:100EE00080600861084603F072FD3320FFF775FF4C
:100EF00004460CB12046BEE70DE04FF4001003F0AD
:100F0000F9FD40B19E48803000684DF82600761CFF
:100F1000022E00D307E09A483430006840F22A617C
:100F200008400028E9D000BF082003F0E3FD20B10D
:100F3000082003F0EAFD04209DE7022003F0DAFD1B
:100F400020B1022003F0E1FD022094E7202003F00D
:100F5000D1FD20B1202003F0D8FD06208BE74FF40F
:100F6000007003F0C7FD28B14FF4007003F0CDFD11
:100F7000072080E740F2FF5003F0C7FD009800060D
:100F8000009901F47F4140EA0120009901F47F01BA
:100F900040EA1120009940EA11606860019800065B
:100FA000019901F47F4140EA0120019901F47F0198
:100FB00040EA1120019940EA1160286020465AE772
:100FC0007CB50546002400200090019000260DB15C
:100FD000022600E000266A481430006800F0007025
:100FE00008B10E207CBD6A49098888B26946FFF7BE
:100FF00024FF04460CB12046F4E7019800F4802059
:1010000060B3634800880004604908603720486086
:10101000402088600020C8604FF480600861084666
:1010200003F0D5FC3720FFF7D8FE04460CB120466C
:10103000D8E756480660062054494860402088603A
:101040000020C8604FF480600861084603F0BFFCD0
:101050000620FFF7C2FE04462046C3E72520C1E76D
:1010600070B5044600254C480078032802D1272596
:10107000284670BD4848007838B1474800780128B4
:1010800003D045480078022819D1B4F5805F02D119
:1010900027252846EDE7E0B2FFF792FF054675B930
:1010A0003748001D006820F4C0503549091D08600C
:1010B0000846006820430860084600680860284623
:1010C000D7E710B504463148046007202F4948602F
:1010D000402088600020C8604FF4806008610846A6
:1010E00003F075FC0720FFF778FE10BDF0B5014650
:1010F00000200022284B1B7881F85630244B1B8897
:10110000A1F85430254B1B681A0E93090B70C2F3DB
:1011100083034B7002F003038B70204B1B68C3F3F7
:101120000742CA701D4B1B88C3F307220A711B4B71
:101130001A784A715B681A0E1301CB80174B5B68F3
:10114000C3F30742CB8843EA1213CB8002F00F03AC
:101150000B72124B9B88C3F30722D3094B72C2F365
:1011600080138B72C2F34013CB72C2F300130B7364
:1011700000234B73084B1B78C3B1074B1B780FE060
:10118000002C0140FF07C000200000208802002042
:101190001C0000209C02002018000020B402002047
:1011A000012B03D0FE4B1B78032B4FD193071B0D54
:1011B0000B61FC4B1A790B6943EA82030B61F94B13
:1011C0009B681A0E0B6943EA92130B61C2F3C203C8
:1011D0000B7502F007034B75F24B9B68C3F3074294
:1011E00053098B75C2F38203CB7593075B0F0B76A4
:1011F000EC4B1B89C3F307220B7E43EAD2130B7619
:101200000B695B1C0024C1E912340B7E9B1C01247A
:1012100004FA03F3DC17D1E91256A5FB037C06FBA5
:1012200003C305FB0433C1E912730C7A0123A34005
:101230000B650024D1E912650B6DA6FB037C05FB51
:1012400003C306FB0433C1E912732EE0D44B1B78B1
:10125000022B2AD1D34B1A7993069B0A0B61D14BEF
:101260009B681A0E0B6943EA02230B61CD4B9B6806
:10127000C3F307420B6913430B61CA4B1B89C3F3CA
:1012800007220B695B1C4FF40074A3FB04464FF468
:1012900080630025A4FB037C06FB03C304FB05332A
:1012A000C1E912734FF400730B65C2F3801301F8A8
:1012B000193F93065B0E4B70BA4B1A7A4B7843EA90
:1012C000D2134B7002F07F038B70B64BDB681A0EA3
:1012D000D309CB70C2F341130B71C2F382034B717C
:1012E00093071B0F8B71AF4BDB68C3F307428B79FE
:1012F00043EA92138B71C2F34013CB7100230B723C
:1013000002F001034B72A74B9B89C3F30722D30959
:101310008B72C2F38013CB72C2F340130B73C2F310
:1013200000134B73C2F381038B7302F00303CB737F
:101330009C4B1A7B53080B7401234B749A4B1B680C
:101340001A0ECA741939984B1B68C3F3074214026A
:10135000CC85954B1B88C3F30722CB8D1343CB85DC
:10136000914B1A7814060C635B681A0E0B6B43EAF8
:1013700002440C638C4B5B68C3F307420B6B43EA7C
:1013800002240C63884B9B88C3F307220B6B134327
:101390000B63854B1A7934235A54834B9B681A0E7E
:1013A00035235A54804B9B68C3F3074214068C6361
:1013B0007D4B1B89C3F307228B6B43EA02448C638A
:1013C000794B1A7A8B6B43EA02248C63764BDB6889
:1013D0001A0E8B6B13438B63734BDB68C3F30742AB
:1013E0003C235B5C43EA12143C235C5413071C0D42
:1013F000CC876D4B9B89C3F30722CB8F1343CB87DD
:10140000694B1A7B540840235C54012441235C54EB
:10141000F0BD70B500264FF4803505E063480468E0
:1014200004F0450000B103E02800A5F10105F5D165
:1014300000BF15B104F0040028B10326042003F016
:1014400064FB304670BD012003F054FB18B1012647
:10145000012003F05AFB40F2FF5003F056FB3046E8
:10146000F0E72DE9F04105460E464FF0000805E093
:101470004E48076807F0450000B100E0F8E700BFFC
:10148000042003F037FB28B1042003F03EFB0320C7
:10149000BDE8F081012003F02DFB20B1012003F015
:1014A00034FB0120F4E7414824380068A84201D009
:1014B0001020EDE740F2FF5003F027FB3B482038B7
:1014C000046804F4604018B9200C30804046DFE71F
:1014D00004F4005008B11320DAE704F4804008B1A6
:1014E0001020D5E704F4004008B10F20D0E74046B3
:1014F000CEE738B500240120009003F062FA10B95D
:101500002524204638BD26480078042825D0002010
:101510002749086002204860C02088600020C86019
:101520004FF480600861084603F051FAFFF771FF3D
:1015300004460CB12046E5E71C48203800681A49EB
:1015400008601A481C380068486018481838006855
:101550008860164814380068C8601148007858B18F
:101560000F480078012807D00D480078062803D0DE
:101570000B480078022821D100200D490860032083
:101580004860402088600020C8604FF48060086197
:10159000084603F01CFA69460320FFF762FF09E0E2
:1015A00018000020B4020020C4020020342C0140A6
:1015B0008802002004460CB12046A3E7FE480078CC
:1015C000032816D1BDF800000004FC490860032080
:1015D0004860402088600020C8604FF48060086147
:1015E000084603F0F4F9FFF714FF04460CB1204657
:1015F00088E7F148007804282AD0BDF80000F049B7
:101600000860BDF800000004EC490860092048604B
:10161000C02088600020C8604FF4806008610846E0
:1016200003F0D5F9FFF7F5FE04460CB1204669E753
:10163000E4480068E4490860E248001D006848602A
:10164000E048083000688860DE480C300068C860F8
:10165000002057E710B506E0DA482030046804F0AF
:10166000450000B100E0F7E700BF042003F042FAB4
:1016700020B1042003F049FA032010BD40F2FF50CE
:1016800003F043FA0020F8E770B500264FF48035E8
:1016900006E0CC482030046804F0450000B103E0C7
:1016A0002800A5F10105F4D100BF15B104F0040034
:1016B00028B10326042003F028FA304670BD04F058
:1016C000400018B10026402003F01FFA3046F5E72D
:1016D00070B500254FF4803404E0802003F00AFA4E
:1016E00000B103E02000A4F10104F6D100BF0CB961
:1016F000032070BD40F2FF5003F007FA2846F8E7D8
:101700002DE9F0470027002400260025A046A14629
:101710007620AE4908750020086048608860C8607F
:101720000861084603F029F9032003F046F9A548AB
:101730001038006840F48070A2491039086000BF7A
:1017400012E000209D49086048608860C8604FF43E
:1017500080600861084603F03AF9FFF7B9FF0446D4
:1017600004B903E0781CC7B24A2FEADB00BF14B10A
:101770002046BDE8F0874FF4D570904908600820F6
:101780004860402088600020C8604FF48060086195
:10179000084603F01CF9FFF777FF044624B901203F
:1017A000854908704FF0804900208449086037203F
:1017B0004860402088600020C8604FF48060086165
:1017C000084603F004F93720FFF707FB0446002C16
:1017D0004BD134E000207949086037204860402030
:1017E00088600020C8604FF480600861084603F0FC
:1017F000EEF83720FFF7F1FA04460CB12046B8E7BF
:10180000734849EA00006D4908602920486040207B
:1018100088600020C8604FF480600861084603F0CB
:10182000D6F8FFF717FF04460CB12046A1E765483C
:101830000668012080EAD67080F001086D1CB8F1BE
:10184000000F03D14FF6FF708542C3D34FF6FF70F0
:10185000854202D31B2420468BE706F08040060019
:1018600032D00220544908702EE01CE059485349F8
:10187000086001204860402088600020C8604FF464
:1018800080600861084603F0A2F8FFF7E3FE044613
:101890000CB120466DE74B480668012080EAD670FF
:1018A00080F001086D1CB8F1000F03D14FF6FF70F6
:1018B0008542DBD34FF6FF70854202D31B242046BE
:1018C00057E703203C490870204652E73EB5002404
:1018D00000250121404802F0C7FC0121C80202F0A6
:1018E0001DFD0121C80202F06EFD4FF4F850019079
:1018F00002208DF808008DF8090000208DF80A00FC
:1019000001208DF80B0001A9344802F00FFA0420E1
:10191000019001A9324802F009FA0C2208212F484F
:1019200002F08FFA0C2209212C4802F08AFA0C22CC
:101930000A212A4802F085FA0C220B21274802F0DE
:1019400080FA0C221146254802F07BFA0C22022173
:10195000234802F076FA00214FF4006002F033FDD4
:10196000FFF710FA31208DF8000000208DF80100FB
:101970008DF8020001208DF80300684602F0E5F8BA
:10198000FFF7BEFE044614B9FFF7B3FD04461CB9C9
:101990001448FFF7ABFB044634B91249B1F85410B0
:1019A0000804FFF78EFB044624B94FF40060FFF7EC
:1019B00057FB0446E4B117E018000020880200201D
:1019C0001C000020142C0140B402002070020020F2
:1019D000000010800080FF800C00400000080240E2
:1019E000000C0240D8020020FE480078032812D1E3
:1019F000FD4890F8560020B1FB4890F856000128A9
:101A000001D1022500E000252846FFF7DDF900207E
:101A1000FFF7D0F9044620463EBD10B5002002F085
:101A2000CCFF002010BD70B590B004460E461546A0
:101A300000BFEE4804F03FFA0028FAD1EB4804F06A
:101A400011F94FF000600190E94802900394049569
:101A50000020059006904FF4806007908000089069
:101A60008000099000200A904FF440300B90042031
:101A70000C9003200D904FF400000E9080100F90FA
:101A800001A9DA4804F090F92021D84804F0DCF9E3
:101A90000121D64804F0C2F910B070BD0146002003
:101AA00002E04910421CD0B20129FAD170472DE959
:101AB000F84F8146174698460A9C4FF0000AD346D5
:101AC0004D464FF0FF36B9F1000F02D12620BDE898
:101AD000F88F0020C64954390860C24800780228AF
:101AE00005D10402780A40EAC8574FEA6828002066
:101AF000C04988604860401E08600120486100209D
:101B0000C8600861084602F08EFFB9486C3800686A
:101B100000F0007008B10E20D9E7002C21DDB4F5EB
:101B2000006F1EDC601E2040D8B92046FFF7B6FFCC
:101B30000090B14804601020AF49486040208860A0
:101B40000020C8604FF480600861084602F03FFF43
:101B50001020FFF742F98246BAF1000F03D0504639
:101B6000B5E72620B3E700980001A249886008463F
:101B700044604FF0FF300860012048610220C860D7
:101B800000200861084602F04EFF9B4807601120C4
:101B900099494860402088600020C8604FF4806008
:101BA0000861084602F013FF1120FFF716F982467C
:101BB000BAF1000F01D0504689E79048007800281C
:101BC0005AD1FEF76EFB17E04FF4004002F092FF8F
:101BD00070B14FF0000B05E08548006845F82B0018
:101BE0000BF1010BBBF1080FF6D32035844E03E057
:101BF0000EB904206BE7761E7D484C38006840F231
:101C00002A6108400028DFD0082002F073FF20B1CD
:101C1000082002F07AFF042059E7022002F06AFF50
:101C200020B1022002F071FF022050E7202002F0D4
:101C300061FF20B1202002F068FF062047E74FF443
:101C4000007002F057FF28B14FF4007002F05DFF02
:101C500007203CE703E06648006828602D1D4FF42C
:101C6000001002F047FF0028F5D1FEF71CFB40F200
:101C7000FF5002F04AFF39E060480078012835D172
:101C80000020604908706049087060490870584831
:101C90004438006840F22A31084355494439086005
:101CA00053485438006840F00800514954390860DE
:101CB000002221464846FFF7B6FE00E0761E4B485C
:101CC0005838006800F0006038B95048007820B9F2
:101CD0004C48007808B9002EF0D10EB90420F6E681
:101CE0004848007810B1474890F800A05046EEE60A
:101CF0002DE9FF5F17469846DDE90E464FF00009D3
:101D0000CA464FF0FF354249009808600020384924
:101D10005439086033480078022805D10402780A53
:101D200040EAC8574FEA6828002032498860486076
:101D3000401E0860012048610020C8600861084614
:101D400002F071FE2A486C38006800F0007018B18B
:101D50000E2004B0BDE8F09F002C21DDB4F5006F2B
:101D60001EDC601E2040D8B92046FFF797FE834650
:101D700021480460102020494860402088600020ED
:101D8000C8604FF480600861084602F020FE102011
:101D9000FFF723F88146B9F1000F03D04846D8E792
:101DA0002620D6E7012E6ED906FB04F0B0F1007FA5
:101DB00001D32620CDE74FEA0B100E49886006FBC1
:101DC00004F048604FF0FF300860012048610220B5
:101DD000C86000200861084602F025FE064807603A
:101DE000122017E018000020D8020020586402409A
:101DF000802C01409C02002088020020200000204E
:101E0000FFFF7F002200002021000020230000208F
:101E100024000020F9494860402088600020C86004
:101E20004FF480600861084602F0D1FD1220FEF7F1
:101E3000D4FF8146B9F1000F01D0484689E7F04848
:101E4000007800287ED1FEF72CFA1EE04FF4004007
:101E500002F050FEA0B14FF0000A07E0E948006828
:101E6000E949096841F82A000AF1010ABAF1080FA4
:101E7000F4D3E54800682030E3490860E34D04E00E
:101E800015B9042065E7AEE06D1EDE484C380068E9
:101E900040F22A3108400028D8D0082002F02AFE5B
:101EA00020B1082002F031FE042052E7022002F0A7
:101EB00021FE20B1022002F028FE022049E7202066
:101EC00002F018FE20B1202002F01FFE062040E79D
:101ED0004FF4007002F00EFE28B14FF4007002F0D3
:101EE00014FE072035E709E0C6480068C6490968BE
:101EF0000860C5480068001DC34908604FF4001021
:101F000002F0F8FD0028EFD14FF4807002F0F2FDEE
:101F100020B3BF48007838B1BD480078012803D00D
:101F2000BB480078022819D10020B44908600C2071
:101F30004860402088600020C8604FF480600861DD
:101F4000084600E011E002F042FD0C20FEF745FFDC
:101F50008146B9F1000F01D04846FAE6FEF7A3F931
:101F600040F2FF5002F0D1FD3DE0A5480078012885
:101F700039D10020A74908700120A7490870002026
:101F8000A64908709F484438006840F22A31084347
:101F90009C49443908609B485438006840F0080068
:101FA00098495439086006FB04F100220098FFF7B5
:101FB0003AFD00E06D1E9A48006800F0006008B924
:101FC000002DF7D10DB90420C3E600BF9348007877
:101FD00018B9904800780028F8D08E48007810B1E1
:101FE0008C4890F800904846B3E61CB504460020A3
:101FF000019000908B4800880004804908600D2003
:102000004860402088600020C8604FF4806008610C
:10201000084602F0DCFC7B484C380068009003E086
:1020200078484C3800680090009800F0450000287F
:10203000F6D0012002F05EFD20B1012002F065FD26
:1020400001201CBD042002F055FD20B1042002F047
:102050005CFD0320F5E76B48703800680D2801D05F
:102060001020EEE740F2FF5002F04FFD65486C385B
:10207000006801900198C0F3432020700020E0E741
:102080002DE9FF5F86B017469846149D0026002074
:1020900005900490002481460390824602900195A9
:1020A000DDF818B0DDF818B0BBF1000F03D1262021
:1020B0000AB0BDE8F09F00205249543908605A49DF
:1020C00088604860401E0860012048610020C860A8
:1020D0000861084602F0A7FC4A486C38006800F026
:1020E000007008B10E20E3E749480078022805D1C6
:1020F0000502780A40EAC8574FEA6828002D1FDD1C
:10210000B5F5006F1CDC681E2840C8B92846FFF7EB
:10211000C5FC0590394805601020384948604020CA
:1021200088600020C8604FF480600861084602F0B3
:102130004EFC1020FEF751FE06461EB13046B7E7B2
:102140002620B5E73748008800042C4908600D2098
:102150004860402088600020C8604FF480600861BB
:10216000084602F034FC0D20FEF737FE06460EB19D
:1021700030469DE723486C38006803904FF0FF34E9
:102180001CE0641E2748008800041C4908600D20DC
:102190004860402088600020C8604FF4806008617B
:1021A000084602F014FC0D20FEF717FE06460EB19D
:1021B00030467DE713486C3800680390039800F4BC
:1021C000807008B9002CDCD10CB9292070E70B48CD
:1021D0000760182009494860402088600020C860D6
:1021E0004FF480600861084602F0F1FB1820FEF70A
:1021F000F4FD0646D6B130465AE7000088020020BA
:1022000020000020802C014024000020FFFF7F00E0
:1022100018000020220000202100002023000020C0
:10222000006402401C0000209C0200200020F849AD
:10223000087005980001F7498860084645604FF02E
:10224000FF300860012048610020C860086108462E
:1022500002F0E9FB4FF0FF34EF48007800287CD112
:10226000FEF71FF843E04FF4804002F043FCC8B390
:102270000198A0EB0900202821D20198A0EB0900C9
:1022800000F0030020B90198A0EB0900800804E0E9
:102290000198A0EB09008008401C02904FF0000A52
:1022A00009E0DE49DBF8000008600AF1010A0BF1E1
:1022B000040B09F1040902988245F2D30FE04FF0B4
:1022C000000A05E05BF82A00D44908600AF1010A17
:1022D000BAF1080FF6D30BF1200B09F120096FF0CA
:1022E000404404E0FFE70CB90420E1E6641ECB485B
:1022F0004C38006840F21A6108400028B3D008202A
:1023000002F0F8FB20B1082002F0FFFB0420CFE62A
:10231000022002F0EFFB20B1022002F0F6FB0220C7
:10232000C6E6102002F0E6FB20B1102002F0EDFB23
:102330000520BDE64FF4007002F0DCFB30B14FF435
:10234000007002F0E2FB0720B2E606E0FDF7ABFF0B
:1023500040F2FF5002F0D9FB43E0AF48007801287B
:102360003FD10020AE490870A9490870AD490870F6
:10237000AA484438006840F21A310843A749443952
:102380000860402229460698FFF74DFBA3485438C1
:10239000006840F00800A1495439086000E0641E5C
:1023A000A148006800F0006008B9002CF7D11CB902
:1023B000FFF78CFA04207BE64FF0FF3400E0641E48
:1023C0009848007820B99648007808B9002CF6D1D2
:1023D0000CB904206CE69248007810B1904800785F
:1023E00066E640F2FF5002F090FB04A8FFF7FDFD07
:1023F000064603E004A8FFF7F8FD06463EB99DF83F
:1024000010000728F6D09DF810000628F2D03046BC
:102410004EE62DE9FF5F84B0DDE91247002600207B
:1024200003900290002580468146019007FB04FB43
:10243000DDF810A0DDF810A0BAF1000F03D12620BE
:1024400008B0BDE8F09F0020744954390860714914
:1024500088604860401E0860012048610020C86014
:102460000861084602F0DFFA6C486C38006800F03A
:10247000007008B10E20E3E76C480078022808D10C
:102480000402DDE90601400A40EAC1504912CDE9E3
:102490000601002C1FDDB4F5006F1CDC601E20401F
:1024A000C8B92046FFF7FAFA03906148046010208B
:1024B0005F494860402088600020C8604FF4806019
:1024C0000861084602F083FA1020FEF786FC0646F3
:1024D0001EB13046B4E72620B2E7012F6FD907FBC3
:1024E00004F0B0F1007F01D32620A9E74F4800781F
:1024F00038B14E480078012803D04C4800780228B3
:102500002DD14C48008800044949086037204860B4
:10251000402088600020C8604FF480600861084651
:1025200002F055FA3720FEF758FC06460EB1304649
:1025300086E73F48076017203D4948604020886093
:102540000020C8604FF480600861084602F03FFA3E
:102550001720FEF742FC06460EB1304670E73449BC
:102560000698086019204860402088600020C860F4
:102570004FF480600861084602F029FA1920FEF73E
:102580002CFC06460EB130465AE70398000121495B
:10259000886007FB04F048604FF0FF3008600120BE
:1025A00048610020C8600861084602F03CFA1A48F9
:1025B0000078002872D1451EFDF773FE54E0F8E064
:1025C0004FF4804002F096FAB0B3ABEB080020283D
:1025D00033D2ABEB080000F0030018B9ABEB0800F6
:1025E000800803E0ABEB08008008401C01904FF02E
:1025F000000909E00949DAF80000086009F1010959
:102600000AF1040A08F1040801988145F2D324E094
:10261000210000209C02002020000020802C01408E
:102620002200002023000020006402401800002047
:10263000880200201C00002012E04FF0000905E095
:102640005AF82900F749086009F10109B9F1080FA2
:10265000F6D30AF1200A08F120086FF0404503E0A4
:102660000DB90420ECE66D1EEE484C38006840F2CF
:102670001A3108400028A3D0082002F03BFA20B10C
:10268000082002F042FA0420DAE6022002F032FAD0
:1026900028B1022002F039FA0220D1E640E01020F1
:1026A00002F028FA20B1102002F02FFA0520C7E628
:1026B0004FF4007002F01EFA28B14FF4007002F0DF
:1026C00024FA0720BCE64FF4807002F013FA00B33E
:1026D000D548007838B1D4480078012803D0D248D2
:1026E0000078022815D10020D04908600C204860ED
:1026F000402088600020C8604FF480600861084670
:1027000002F065F90C20FEF768FB06460EB1304674
:1027100096E6FDF7C8FD40F2FF5002F0F6F948E0FA
:10272000C3480078012844D10020C2490870012024
:10273000C14908700020C1490870BA48443800688F
:1027400040F21A310843B7494439086007FB04F1E5
:1027500040220498FFF767F9B2485438006840F007
:102760000800B049543908604FF0FF3500E06D1E95
:10277000B348006800F0006008B9002DF7D11DB91A
:10278000FFF7A4F804205BE64FF0FF3500E06D1E74
:10279000AA48007820B9A748007808B9002DF6D1DA
:1027A0000DB904204CE6A348007810B1A148007888
:1027B00046E640F2FF5002F0A8F902A8FFF715FC28
:1027C000064603E002A8FFF710FC06463EB99DF856
:1027D00008000728F6D09DF808000628F2D03046F9
:1027E0002EE610B54FF4807002F084F988B3924859
:1027F0000078012814D100208C4908600C20486022
:10280000402088600020C8604FF48060086108465E
:1028100002F0DDF80C20FEF7E0FA8649087002E0CD
:102820000020844908707F484838006840F4807070
:102830007C4948390860081D00684CF23A318843E9
:1028400078494439086001207C490870794800784B
:1028500010BDFFE7022002F04DF978B1022002F02E
:1028600054F97048443800684CF23A3188436D4955
:102870004439086002206F490870E9E7082002F037
:1028800039F978B1082002F040F966484438006808
:102890004CF23A3188436349443908600420654961
:1028A0000870D5E7202002F025F978B1202002F049
:1028B0002CF95C48443800684CF23A318843594955
:1028C0004439086006205B490870C1E7102002F017
:1028D00011F978B1102002F018F952484438006814
:1028E0004CF23A3188434F49443908600520514938
:1028F0000870ADE74FF4007002F0FCF880B14FF4BF
:10290000007002F002F94748443800684CF23A314E
:10291000884344494439086007204649087097E7CE
:10292000002095E710B5FFF75CFF10BD70B50446B9
:10293000002514B92625284670BD424800880004A9
:102940003A4908600D204860402088600020C86037
:102950004FF480600861084602F039F80D20FEF758
:102960003CFA05460DB12846E6E72E486C3800686B
:1029700020602846E0E708B5002000906846FFF791
:10298000D5FF08B1FF2008BD0098C0F34320FAE747
:102990002DE9FE4F83460C4691460020029000260A
:1029A00025462C46700240EAD5566D020BF0030016
:1029B000F0B14FF0000A18E04FF4007000904FEAB9
:1029C0004A20471946EBE0733A461F48FFF76FF875
:1029D00002904FF400721C49584608F0A5FC0BF514
:1029E000007B0AF1010000F0FF0ACA45E4DB16E0B3
:1029F000B9F1010F09D14FF400702A463346009017
:102A00005846FFF754F8029009E04FF400702A4648
:102A10003346CDE900095846FFF76AF9029002985B
:102A2000BDE8FE8F802C01401800002088020020A5
:102A30002000002022000020210000202300002090
:102A4000006402401C000020300300202DE9FE4FEE
:102A500081460C46924600200290002625462C46D0
:102A6000700240EAD5566D0209F00300F0B14FF054
:102A7000000B18E04FF400724946194808F054FC66
:102A80004FF4007000904FEA4B20471946EBE0737B
:102A90003A461348FFF7F4FA029009F500790BF172
:102AA000010000F0FF0BD345E4DB16E0BAF1010FA3
:102AB00009D14FF400702A46334600904846FFF78C
:102AC000DFFA029009E04FF400702A463346CDE960
:102AD000000A4846FFF79DFC02900298BDE8FE8F71
:102AE0003003002010B500240020D6490860902053
:102AF00000F0B4F9002000F0B1F9002000F0AEF9C8
:102B0000002000F0ABF9FF2000F0A8F944EA00240F
:102B1000FF2000F0A3F904430120CB49C1F8B8021B
:102B2000204610BD1CB50121022001F09DFB0121B2
:102B3000402001F099FB4FF48040009001208DF877
:102B4000040000208DF8060003208DF80500012008
:102B50008DF807006946BD4801F0E8F88020009034
:102B60006946BB4801F0E2F88021B94801F05AF902
:102B70000120B449086000F08AF9002000F0E4F96F
:102B8000FFF7B0FFB34908801CBD10B5002400203A
:102B9000AC490860052000F061F9FF2000F05EF903
:102BA00004460120A849C1F8B802204610BD10B55E
:102BB00004460020A3490860012000F04FF9204698
:102BC00000F04CF90120A049C1F8B80210BD10B5C1
:102BD00000209C490860062000F040F901209A4935
:102BE000C1F8B80210BD10B5002096490860042055
:102BF00000F034F901209449C1F8B80210BD2DE964
:102C0000F04106460C46174600208E490860032016
:102C100000F024F9C4F3074000F020F9C4F30720C2
:102C200000F01CF9E0B200F019F9002505E0FF20E2
:102C300000F014F97055681C85B2BD42F7DB012025
:102C400080490860BDE8F08110B500BFFFF79DFF27
:102C500000F001000028F9D110BD2DE9F041064631
:102C60000C461746FFF7B3FF0020764908600220A4
:102C700000F0F4F8C4F3074000F0F0F8C4F30720C4
:102C800000F0ECF8E0B200F0E9F8002504E0705D37
:102C900000F0E4F8681C85B2BD42F8DB0120694908
:102CA0000860FFF7D1FFBDE8F0812DE9F04107464C
:102CB0000E461446F0B2C0F58075AC4200DC2546E5
:102CC00012E02A4631463846FFF7C7FFAC4200D132
:102CD0000BE02F442E44601B84B2B4F5807F02DDEC
:102CE0004FF4807500E02546EBE700BFBDE8F081BA
:102CF00010B504462403FFF76AFFFFF7A5FF002085
:102D000050490860202000F0A9F8C4F3074000F003
:102D1000A5F8C4F3072000F0A1F8E0B200F09EF897
:102D200001204949C1F8B802FFF78EFF10BD2DE917
:102D3000F05F81460F461646DFF81CB14FEA1738A0
:102D4000C7F30B0ACAF58054A64200DC344644E0BF
:102D50004FEA08314FF480525846FFF750FF0025E4
:102D600008E00AEB05001BF80000FF2800D003E094
:102D7000681C85B2A542F4DB00BFA54216DA4046C6
:102D8000FFF7B6FF002507E019F8050005EB0A017B
:102D90000BF80100681C85B2A542F5DB4FEA08314B
:102DA0004FF480525846FFF780FF04E02246394630
:102DB0004846FFF77AFFA64200D10FE008F101086C
:102DC0004FF0000AA1442744301B86B2B6F5805F5D
:102DD00002DD4FF4805400E03446B9E700BFBDE89F
:102DE000F09F10B5FFF7F3FEFFF72EFF0020154907
:102DF0000860C72000F032F801201349C1F8B8027A
:102E0000FFF722FF10BD10B500200E490860B92061
:102E100000F024F801200C49C1F8B802032000F0AA
:102E200041FD10BD10B5002006490860AB2000F040
:102E300015F801200449C1F8B802032000F032FD62
:102E400010BD0000B88240420080404200040240B1
:102E500000180240280000203005002010B504466C
:102E600000BF0221414802F07BF80028F9D021463A
:102E70003E4802F02CF800BF01213C4802F070F8F7
:102E80000028F9D0394802F01FF8C0B210BD00B5D3
:102E900087B00121084601F0E7F90121080301F09C
:102EA0003DFA3820059002208DF8180000208DF89A
:102EB0001A0003208DF8190001208DF81B0005A9C8
:102EC0002B4800F033FF05220321294800F0B9FF09
:102ED00005220421264800F0B4FF052211462448AB
:102EE00000F0AFFF0121080301F06DFA00214FF45B
:102EF000805001F068FA0020ADF800004FF48270B5
:102F0000ADF802000020ADF804000220ADF8060084
:102F10000120ADF808004002ADF80A003820ADF8F5
:102F20000C000020ADF80E000720ADF81000694637
:102F30000E4801F051FE01210C4801F047FFFF202F
:102F4000FFF78CFF07B000BD10B5044607480088A6
:102F50004FF6C7710840054908800846008820439D
:102F600008800121014801F031FF10BD003001400F
:102F70000004024070B505460C462146FE4800F0AC
:102F8000A1FD70BD2DE9FF4106460024AA2221467D
:102F9000641CF94842542146641C425400222146D4
:102FA000641C42542146641C42542146641C46540D
:102FB0009DF805202146641C42549DF804202146BA
:102FC000641C42549DF809202046611CCCB2EA4999
:102FD0000A549DF808202046611CCCB2E6490A54E8
:102FE0009DF80D202146601CC4B2E34842549DF870
:102FF0000C202046611CCCB2DF490A549DF82920E0
:103000002046611CCCB2DC490A549DF82820204699
:10301000611CCCB2D8490A54201FC8700027002573
:1030200005E0D548405D3844C7B2681CC5B2A5422A
:10303000F7DB2046611CCCB2CF490F542146CE4865
:10304000FFF798FFBDE8FF812DE9F0432DED048BDC
:1030500083B0B0EE408AF0EE608AB0EE419A064648
:103060000F46904600240196AA222146641CC248BD
:1030700042542146641C425401222146641C42549D
:1030800000222146641C42549FEDBC0A28EE000A2F
:10309000BDEEC00A10EE100A00B202909DF80920A1
:1030A0002146641CB44842549DF808202146641C03
:1030B00042549FEDB20A28EE800ABDEEC00A10EE1F
:1030C000100A00B202909DF809202146641CAA480B
:1030D00042549DF808202046611CCCB2A6490A54EF
:1030E0009FEDA60A29EE000ABDEEC00A10EE100AF6
:1030F00000B202909DF809202046611CCCB29E4986
:103100000A549DF808202046611CCCB29A490A5402
:103110009DF807202046611CCCB297490A549DF8BF
:1031200006202046611CCCB293490A549DF8052024
:103130002046611CCCB290490A549DF804202146D7
:10314000601CC4B28C4842542046611CCCB28A49EF
:103150000F542046611CCCB2874901F80080201F23
:10316000C8704FF00009002506E08348405D4844E0
:1031700000F0FF09681CC5B2A542F6DB2046611CC1
:10318000CCB27D4901F8009021467B48FFF7F2FE62
:1031900003B0BDEC048BBDE8F0832DE9F84F064683
:1031A0000F4690469946DDF828B00024AA22214611
:1031B000641C714842542146641C42540222214638
:1031C000641C425400222146641C425400969DF81F
:1031D00001202146641C42549DF800202146641CB5
:1031E000425400979DF801202146641C42549DF8EA
:1031F00000202046611CCCB25F490A54CDF8008003
:103200009DF801202046611CCCB25B490A549DF810
:1032100000202046611CCCB257490A54CDF80090DA
:103220009DF801202046611CCCB253490A549DF8F8
:1032300000202046611CCCB24F490A54CDF800B0A2
:103240009DF801202046611CCCB24B490A549DF8E0
:1032500000202046611CCCB247490A540B980090CC
:103260009DF801202046611CCCB243490A549DF8C8
:1032700000202046611CCCB23F490A540C980090B3
:103280009DF801202046611CCCB23B490A549DF8B0
:1032900000202046611CCCB237490A540D9800909A
:1032A0009DF801202046611CCCB233490A549DF898
:1032B00000202046611CCCB22F490A540E98009081
:1032C0009DF801202046611CCCB22B490A549DF880
:1032D00000202046611CCCB227490A54201FC87028
:1032E0004FF0000A002506E02348405D504400F0FE
:1032F000FF0A681CC5B2A542F6DB2046611CCCB2B1
:103300001D4901F800A021461B48FFF733FEBDE828
:10331000F88F7FB50024AA222146641C1648425427
:103320002146641C425403222146641C425400225C
:103330002146641C42549DF801202146641C4254DD
:103340009DF800202146641C42549DF8052021462A
:10335000641C42549DF804202046611CCCB20649EE
:103360000A549DF809202046611CCCB202490A5437
:103370009DF80820204603E03D1500200000C842CB
:10338000611CCCB2FE490A549DF80D202046611CF8
:10339000CCB2FB490A549DF80C202046611CCCB2EB
:1033A000F7490A549DF821202146601CC4B2F44814
:1033B00042549DF820202046611CCCB2F0490A54AA
:1033C0009DF825202046611CCCB2ED490A549DF899
:1033D00024202046611CCCB2E9490A549DF82920DA
:1033E0002046611CCCB2E6490A549DF828202046AC
:1033F000611CCCB2E2490A549DF82D202046611C84
:10340000CCB2DF490A549DF82C202046611CCCB276
:10341000DB490A549DF831202046611CCCB2D849C2
:103420000A549DF830202046611CCCB2D4490A547D
:103430009DF835202046611CCCB2D1490A549DF834
:1034400034202046611CCCB2CD490A54201FC870DC
:103450000026002505E0CA48405D3044C6B2681C1D
:10346000C5B2A542F7DB2046611CCCB2C4490E545C
:103470002146C348FFF77EFD7FBD2DE9F843064690
:103480000F460024AA222146641CBD48425421460E
:10349000641C425405222146641C425400222146E9
:1034A000641C425400969DF801202146641C42543D
:1034B0009DF800202146641C425400979DF801208D
:1034C0002146641C42549DF800202046611CCCB269
:1034D000AB490A54201FC8704FF00008002506E0D1
:1034E000A748405D404400F0FF08681CC5B2A542F3
:1034F000F6DB2046611CCCB2A14901F800802146D0
:103500009F48FFF737FDBDE8F8837FB50024AA2266
:103510002146641C9A4842542146641C42540622A7
:103520002146641C425400222146641C42549DF8EA
:1035300001202146641C42549DF800202146641C51
:1035400042549DF805202146641C42549DF80420F5
:103550002046611CCCB28A490A549DF809202046B5
:10356000611CCCB286490A549DF808202046611C93
:10357000CCB283490A549DF80D202046611CCCB280
:103580007F490A549DF80C202046611CCCB27C492E
:103590000A549DF821202046611CCCB278490A5477
:1035A0009DF820202046611CCCB275490A549DF834
:1035B00025202046611CCCB271490A549DF8242074
:1035C0002046611CCCB26E490A549DF82920204641
:1035D000611CCCB26A490A549DF828202046611C1F
:1035E000CCB267490A549DF82D202046611CCCB20C
:1035F00063490A549DF82C202046611CCCB26049D6
:103600000A54201FC8700026002505E05C48405D74
:103610003044C6B2681CC5B2A542F7DB2046611C27
:10362000CCB257490E5421465548FFF7A3FC7FBD45
:10363000F0B52DED0A8B81B00646B0EE408AF0EE73
:10364000608AB0EE419AF0EE619AB0EE42AAF0EED6
:1036500062AAB0EE43BAF0EE63BAB0EE44CA0024F8
:10366000AA222146641C464842542146641C425406
:1036700006F10F00C2B22146641C414842540022A8
:103680002146641C42549FED3F0A28EE000ABDEE1D
:10369000C00A10EE100A00B200909DF801202146E9
:1036A000641C374842549DF800202146641C425453
:1036B0009FED340A28EE800ABDEEC00A10EE100A13
:1036C00000B200909DF801202146641C2C48425411
:1036D0009DF800202046611CCCB229490A549FED78
:1036E000290A29EE000ABDEEC00A10EE100A00B247
:1036F00000909DF801202046611CCCB220490A545C
:103700009DF800202046611CCCB21D490A549FED53
:103710001D0A29EE800ABDEEC00A10EE100A00B2A2
:1037200000909DF801202046611CCCB214490A5437
:103730009DF800202046611CCCB211490A549FED2F
:10374000110A2AEE000ABDEEC00A10EE100A00B2FD
:1037500000909DF801202046611CCCB208490A5413
:103760009DF800202046611CCCB205490A549FED0B
:10377000050A2AEE800ABDEEC00A10EE100A03E028
:103780003D15002000007A4400B200909DF8012011
:103790002046611CCCB235490A549DF800202046D1
:1037A000611CCCB231490A541FED0A0A2BEE000A03
:1037B000BDEEC00A10EE100A00B200909DF8012084
:1037C0002046611CCCB229490A549DF800202046AD
:1037D000611CCCB225490A541FED160A2BEE800A53
:1037E000BDEEC00A10EE100A00B200909DF8012054
:1037F0002046611CCCB21D490A549DF80020204689
:10380000611CCCB219490A541FED220A2CEE000AA1
:10381000BDEEC00A10EE100A00B200909DF8012023
:103820002046611CCCB211490A549DF80020204664
:10383000611CCCB20D490A54201FC8700027002516
:1038400005E00A48405D3844C7B2681CC5B2A542CD
:10385000F7DB2046611CCCB204490F5421460348D3
:10386000FFF788FB01B0BDEC0A8BF0BD3D150020D1
:1038700010B504466FF0040000F0B4F9E11704EB52
:103880005171C1F3C7013F4A11701046007800EB37
:103890004001C1EBC0104FF6FF7101EAC0003A4988
:1038A000088010BD0146374A12784A434FF0E023A2
:1038B0005A6100229A611A46126942F001021A61A5
:1038C00000BF4FF0E022106900F001021AB100F4CD
:1038D0008032002AF5D04FF0E022126922F0010276
:1038E0004FF0E0231A6100229A6170470146264A90
:1038F00012884A434FF0E0235A6100229A611A4627
:10390000126942F001021A6100BF4FF0E022106913
:1039100000F001021AB100F48032002AF5D04FF015
:10392000E022126922F001024FF0E0231A61002226
:103930009A61704770B504464FF4077094FBF0F03D
:10394000C6B24FF4077094FBF0F100FB114085B252
:1039500005E04FF40770FFF7C9FF701EC6B2002ED6
:10396000F7D115B12846FFF7C1FF70BD30B5044649
:10397000002504E04FF47A70FFF7DCFF6D1CA542D0
:10398000F8D330BD2A0000202C00002000BF704773
:1039900000BF574A128802F04002002AF9D0C2B292
:1039A000534B9A80704710B588B0044601210846F1
:1039B00000F05AFC0121102000F0B0FC0722092180
:1039C0004C4800F03EFA07220A214A4800F039FA32
:1039D0004FF4C060069002208DF81C008DF81D0089
:1039E00000208DF81E0001208DF81F0006A9414817
:1039F00000F09CF902940020ADF80C00ADF80E0028
:103A0000ADF81000ADF814000C20ADF8120002A9BA
:103A1000374800F0E4FD0121354800F068FE01223E
:103A200040F22551324800F018FF25208DF804009F
:103A300003208DF805008DF8060001208DF80700A1
:103A400001A800F082F808B010BD10B540F2255171
:103A5000274800F03DFF10B3254800F077FEC4B2C0
:103A60002548008800F40040C8B92348008800F4C5
:103A7000804060B10A2C03D000201F49088020E05C
:103A80001D48008840F400401B49088019E00D2CB7
:103A900006D11948008840F480401749088010E09A
:103AA00015480088C0F30D0014490C5412480088D2
:103AB000401C1149088008460088C72801DD002005
:103AC000088010BD70B504460D460BE000BF4021D4
:103AD000074800F0E7FE0028F9D014F8011B04485D
:103AE00000F030FE2800A5F10101CDB2EED170BD8D
:103AF0000010014000000240340000206F1500203B
:103B00000948804709480047FEE7FEE7FEE7FEE771
:103B1000FEE7FEE7FEE7FEE7FEE7FEE704480549AD
:103B2000054A064B7047000041060008890100085D
:103B300000C0012000C6012000C2012000C20120F7
:103B400032490143324A1160704770B500210023A9
:103B50000F22C4781CB32E4C246804F4E064C4F52E
:103B6000E064C4F30721C1F10404E3B20A414478DC
:103B70009C40E1B28478144021430C07210E254C6F
:103B800005786155047804F01F050124AC400578E0
:103B90006D11AD0005F1E025C5F8004109E004789C
:103BA00004F01F050124AC401B4D0678761145F842
:103BB000264070BD194A0A400243154B1B1F1A606C
:103BC000704739B1124A121D12680243104B1B1D77
:103BD0001A6006E00E4A121D126882430C4B1B1D30
:103BE0001A607047042808D14FF0E021096941F0BC
:103BF00004014FF0E022116107E04FF0E021096974
:103C000021F004014FF0E022116170470000FA0535
:103C10000CED00E000E400E080E100E080FFFF1F29
:103C200010B504469848844208D10121084600F0A6
:103C300086FB0021012000F082FB76E0934884425D
:103C400008D10121022000F07AFB0021022000F0BF
:103C500076FB6AE08E48844208D10121042000F0FE
:103C60006EFB0021042000F06AFB5EE0894884427C
:103C700008D10121082000F062FB0021082000F09B
:103C80005EFB52E08448844208D10121102000F0FC
:103C900056FB0021102000F052FB46E07F48844292
:103CA00008D10121202000F04AFB0021202000F053
:103CB00046FB3AE07A48844208D10121402000F0D6
:103CC0003EFB0021402000F03AFB2EE07548844284
:103CD00008D10121802000F032FB0021802000F07B
:103CE0002EFB22E07048844208D10121801500F0AB
:103CF00026FB0021A01500F022FB16E06B48844251
:103D000008D10121401500F01AFB0021601500F0D8
:103D100016FB0AE06648844207D10121001500F035
:103D20000EFB0021201500F00AFB10BDF0B50A467D
:103D300000210023002400BF3DE0012505FA01F326
:103D4000156805EA03049C4234D105684F00032638
:103D5000BE40B543056015794E00B5400668354351
:103D600005601579012D02D01579022D16D18568CF
:103D70004F000326BE40B543856055794E00B540DF
:103D8000866835438560456801268E40B5434560A9
:103D9000456896798E40B6B235434560C5684F0098
:103DA0000326BE40B543C560D5794E00B540C66810
:103DB0003543C560491C1029BFD3F0BD4FF6FF71D4
:103DC00001600021017141718171C171704708B5B5
:103DD0004FF480320092009A0A430092009AC26126
:103DE000C161009AC261C2690092C269009208BDB5
:103DF0000246002013690B400BB1012000E00020B7
:103E000070470146086980B2704702460020536936
:103E10000B400BB1012000E00020704701464869CB
:103E200080B2704701837047418370470AB10183B4
:103E300000E0418370474161704742694A404261F6
:103E40007047F0B5002300244D07ED0E02FA05F38C
:103E5000CE1000F1200555F826504E07F70E0F261C
:103E6000BE40B543CF1000F1200646F82750CE10D3
:103E700000F1200555F8265045EA0304CE1000F164
:103E8000200545F82640F0BD000002400004024035
:103E900000080240000C02400010024000140240E2
:103EA00000180240001C0240002002400024024092
:103EB00000280240F948006840F00100F749086016
:103EC0000020F64908310860F4480068F4490840C9
:103ED000F2490860F348091D0860F348EF4984314E
:103EE0000860F0481038091D0860EC48006820F4AC
:103EF0008020EA4908600020E8490C310860E74961
:103F00008C31086070470021E44A921C1170114600
:103F10000870704710B501460022002300204A11A6
:103F2000012A02D1DD4C236808E0022A03D1DB4CD0
:103F30007034236802E0D94C7434236801F01F0206
:103F4000012494401C400CB1012000E0002010BD71
:103F500038B5002000900024002500BF3120FFF775
:103F6000D9FF05460098401C00900098B0F5A04F7E
:103F700001D0002DF2D03120FFF7CCFF08B1012491
:103F800000E00024204638BD01460020C34A1068E6
:103F900020F0F80040EAC10010607047C349086093
:103FA00070470021BD4A703211701170012802D093
:103FB00004280AD104E00121B84A7032117005E0EA
:103FC0000521B64A7032117000E000BF00BF704793
:103FD000B7490860704770B5049C41EA8215012614
:103FE000C6EB530645EA0645054345EA0465AB4E74
:103FF000361D356070BDAD4908667047820142EAE2
:104000000172A64B84331A607047A84988667047CE
:1040100010B5830143EA016343EA02739F4C88347D
:10402000236010BDA14908677047A049C864704764
:1040300002460020994B0833186820F0EC6042EAF1
:1040400001031843954B083318607047024600205F
:10405000924B0833186820F0784042EA0103184375
:104060008E4B083318607047014600208B4A083297
:10407000106820F00300084310607047874808303C
:10408000006800F00C00704701460020834A0832A7
:10409000106820F0F00008431060704701460020CF
:1040A0007E4A0832106820F4E050084310607047E0
:1040B00001460020794A0832106820F4604040EA46
:1040C000C10010607047F0B50021002200240225D5
:1040D00000260223714F08373F6807F00C0121B119
:1040E000042905D0082937D105E0724F076036E072
:1040F000714F076033E0694F3F1D3F68C7F380563B
:10410000664F3F1D3F6807F03F036EB16A4FB7FB34
:10411000F3F7DFF888C10CF1040CDCF800C0CCF335
:10412000881C07FB0CF40CE0624FB7FBF3F7DFF8D9
:104130006CC10CF1040CDCF800C0CCF3881C07FB4C
:104140000CF4564F3F1D3F68C7F301477F1C7D00AD
:10415000B4FBF5F7076002E0564F076000BF00BFF1
:104160004E4F08373F6807F0F0010909534F7A5C5A
:104170000768D7404760494F08373F6807F4E05168
:10418000890A4E4F7A5C4768D7408760434F0837AB
:104190003F6807F46041490B484F7A5C4768D74055
:1041A000C760F0BD002100F44072B2F5407F0AD133
:1041B0003A4A0832116821F4F811414A0240114389
:1041C000364A08321160354A70321268C0F30B0368
:1041D0001A43324B70331A607047354944390860CE
:1041E0007047334940390860704736490860704766
:1041F00001460020294A8C32106820F01F004A1E18
:104200001043264A8C321060704701460020234A32
:104210008C32106820F4F8504A1E40EA02201F4AEF
:104220008C3210607047014600201C4A8C321068A6
:1042300020F4401008431060704701460020174AE0
:104240008C32106820F4400008431060704701462B
:104250000020124A8C32106820F44030084310606D
:10426000704719490860704739B10C4A30321268FA
:1042700002430A4B30331A6006E0084A30321268B3
:104280008243064B30331A607047F9B1034A343227
:1042900012680243014B34331A601CE000380240BC
:1042A000FFFFF6EA103000240030002000004742F3
:1042B000800E47420024F40000127A0036000020ED
:1042C000FFFCFF0F5C014742E01147428F4A126832
:1042D00082438E4B1A60704739B18C4A121D1268A6
:1042E00002438A4B1B1D1A6006E0884A121D1268A1
:1042F0008243864B1B1D1A60704739B1834A0C32CA
:1043000012680243814B0C331A6006E07F4A0C327C
:10431000126882437D4B0C331A60704739B17B4A77
:10432000103212680243794B10331A6006E0774A64
:10433000103212688243754B10331A60704739B1DE
:10434000724A243A12680243704B243B1A6006E01A
:104350006E4A243A126882436C4B243B1A607047C1
:1043600039B16A4A203A12680243684B203B1A600E
:1043700006E0664A203A12688243644B203B1A608A
:10438000704739B1614A1C3A126802435F4B1C3BCB
:104390001A6006E05D4A1C3A126882435B4B1C3B84
:1043A0001A60704739B1594A143A12680243574BA0
:1043B000143B1A6006E0554A143A12688243534B84
:1043C000143B1A60704739B1504A103A12680243E0
:1043D0004E4B103B1A6006E04C4A103A126882437A
:1043E0004A4B103B1A60704739B1484A1C32126878
:1043F0000243464B1C331A6006E0444A1C321268E2
:104400008243424B1C331A60704739B13F4A203215
:10441000126802433D4B20331A6006E03B4A2032CB
:1044200012688243394B20331A60704739B1374ADA
:10443000243212680243354B24331A6006E0334AB3
:10444000243212688243314B24331A60704739B1E9
:104450002E4A2C32126802432C4B2C331A6006E091
:104460002A4A2C3212688243284B2C331A60704738
:1044700039B1264A303212680243244B30331A6075
:1044800006E0224A303212688243204B30331A60F1
:104490007047012808D11D493C31096841F00801E5
:1044A0001A4A3C32116007E018493C31096821F092
:1044B0000801164A3C321160704739B1134A273A55
:1044C00012780243114B273B1A7006E00F4A273A35
:1044D000127882430D4B273B1A7070470B484030CF
:1044E000006840F08070094940310860704701461B
:1044F0000020064A283A12680A400AB1012000E06A
:10450000002070470149263908707047343802404E
:1045100010B50446FA48844208D101211020FFF763
:1045200052FF00211020FFF74EFF57E0F54884426C
:1045300009D101214804FFF735FF00214FF4003075
:10454000FFF730FF4AE0F048844209D10121880496
:10455000FFF728FF00214FF48020FFF723FF3DE005
:10456000EA48844209D10121C804FFF71BFF00215A
:104570004FF40020FFF716FF30E0E548844209D1F0
:1045800001210805FFF70EFF00214FF48010FFF70F
:1045900009FF23E0DF48844208D101212020FFF7F2
:1045A00012FF00212020FFF70EFF17E0DA488442B7
:1045B00009D101218807FFF7F5FE00214FF0804067
:1045C000FFF7F0FE0AE0D548844207D101214005FB
:1045D000FFF7E8FE00216005FFF7E4FE10BD2DE9BE
:1045E000FF4705460E460024A14600BFA046B089FD
:1045F00000B100BF2C8A24F44054F08804432C827C
:10460000AC8941F20C608443B088318908437189D8
:1046100008430443AC81AC8A24F44074B089044359
:10462000AC826846FFF74FFDB548854202D0B948D5
:10463000854202D1DDF80C9001E0DDF80890A889F0
:1046400000F4004040B109EBC90000EB09103168EB
:104650004900B0FBF1F707E009EBC90000EB0910D6
:1046600031688900B0FBF1F76420B7FBF0F004017A
:104670002009642101FB1078A88900F4004040B1B2
:10468000322000EBC800B0FBF1F000F0070004435B
:1046900008E0322000EB08106421B0FBF1F000F0DC
:1046A0000F0004432C81BDE8FF874FF416510160D1
:1046B00000218180C18001810C2141810021818103
:1046C000704710B502460020108A20F470600B88F5
:1046D0004C8823438C882343CC882343184310827F
:1046E00010BD0021018041808180C180704721B1CF
:1046F000828942F40052828104E082894DF6FF7380
:104700001A4082817047028B02F47F420283028B3F
:104710000A430283704721B1828942F400428281B8
:1047200003E08289C2F30E028281704721B1828A3E
:1047300042F40062828204E0828A4FF2FF731A40E0
:1047400082827047C1F308028280704701468888E0
:10475000C0F308007047028A4FF6F0731A400282D5
:10476000028A0A430282704721B1828942F0020222
:10477000828104E082894FF6FD731A40828170477E
:1047800082894FF2FF731A40828182890A438281B3
:104790007047028A4FF6DF731A400282028A0A4388
:1047A0000282704721B1028A42F48042028204E010
:1047B000028A4BF6FF731A4002827047818941F0EA
:1047C00001018181704721B1828A42F00802828210
:1047D00004E0828A4FF6F7731A4082827047028B98
:1047E000D2B20283028B42EA01220283704721B1D6
:1047F000828A42F02002828204E0828A4FF6DF73CE
:104800001A408282704721B1828A42F0100282826D
:1048100004E0828A4FF6EF731A4082827047828AE0
:104820004FF6FB731A408282828A0A438282704763
:1048300021B1828A42F00202828204E0828A4FF62B
:10484000FD731A40828270471AB1838A0B438382B8
:1048500002E0838A8B4383827047F0B503460024CD
:1048600000260025002040F66A17B94200D100BF9B
:104870001846C1F3421401F01F06012707FA06F596
:10488000012C01D10C3004E0022C01D1103000E0E9
:1048900014301AB107682F43076002E00768AF437E
:1048A0000760F0BD02460020B1F5007F00D100BFD7
:1048B00013880B400BB1012000E00020704701F489
:1048C0000072B2F5007F00D100BFCA43028070477A
:1048D00070B50246002400230025002040F66A1629
:1048E000B14200D100BFC1F3421501F01F03012600
:1048F00006FA03F3012D13D19689334017E0000027
:10490000001001400044004000480040004C0040BE
:10491000005000400014014000780040007C00403E
:10492000022D02D1168A334001E0968A33400C12E0
:10493000012606FA04F41688344013B10CB10120A4
:1049400000E0002070BD10B50022002340F66A147C
:10495000A14200D100BF0A1201249440A3B2DC435B
:10496000048010BD10B50121C802FFF72CFD002105
:104970004FF40060FFF727FD10BD00216C4A11685D
:1049800047F6FF629143027D83681A4343681A43E6
:10499000C3681A4303681A4303691A431143644AFC
:1049A0001160704700210175016041608160C16044
:1049B000016170475F49086070475D49091F0860E1
:1049C00070475B48001F006800F00300704700213B
:1049D000574B1B1D02681A601A1D11686FF30A01FC
:1049E000D0E901231A43C3681A4303691A431143E8
:1049F0004F4A0832116070470021016041608160B8
:104A0000C160016170474A480C300068C0B270470D
:104A100008B5014600200090454810300844009039
:104A20000098006808BD0021414B203302681A60DD
:104A30001B1D42681A601A1D116821F0F701D0E9A8
:104A400002231A4303691A4343691A431143384A3C
:104A50002832116070474FF0FF3101600021416042
:104A60008160C16001614161704731482C3000684C
:104A700070472F487C30006870472D497C310860B2
:104A800070472B484430006870472B4908607047D6
:104A90002949091D08607047274908310860704797
:104AA00025490C3108607047244908607047234944
:104AB000091D0860704701218143204A08321160B6
:104AC00070471E490C31086070471B491439086053
:104AD000704739B1164A383212680243144B3833E2
:104AE0001A6006E0124A383212688243104B38339B
:104AF0001A607047014600200D4A303212680A40A1
:104B00000AB1012000E000207047094934310860F3
:104B1000704701460020064A303212680A400AB146
:104B2000012000E0002070470149343108607047DF
:104B3000042C0140A0802542A0852542AC8125425D
:104B400010B50446FB48844208D101218014FFF7C8
:104B50003AFC0021A014FFF736FC3CE0F648844202
:104B600008D101210014FFF71DFC00212014FFF7DC
:104B700019FC30E0F148844208D10121C013FFF74D
:104B800011FC0021E013FFF70DFC24E0EC48844207
:104B900008D101214014FFF716FC00216014FFF733
:104BA00012FC18E0E748844209D101210805FFF70B
:104BB0000AFC00214FF48010FFF705FC0BE0E248EF
:104BC000844208D101214805FFF7FDFB00214FF485
:104BD0000010FFF7F8FB10BD10B50022028802F4A8
:104BE00041520B884C8823438C882343CC88234331
:104BF0000C8923434C8923438C892343CC89234349
:104C00001A430280838B4FF2FF74234083830B8A05
:104C1000038210BD2DE9F04F0025022300244FF040
:104C2000010900220026002794469046B0F81CA0F7
:104C30004FF2400B0AEA0B0AA0F81CA04FF0020A40
:104C4000A0F820A0858BD1F808A0BAF1020F01D1FD
:104C500000BF82E0B1F804A0BAF1000F02D14FF01A
:104C6000010901E04FF00209DFF8E0A2DAF800A044
:104C70000AF4000ABAF1000F09D0DFF8D0A2DAF87E
:104C800000A02AF4000ADFF8C4B2CBF800A0DFF8D5
:104C9000BCA20AF17C0ADAF800A0CAF3881CDFF88B
:104CA000ACA20AF17C0ADAF800A0CAF30278DFF8B5
:104CB0009CA2AAF1040ADAF800A00AF03F07DFF884
:104CC0008CA2AAF1040ADAF800A00AF4800ABAF564
:104CD000800F08D1DFF878A2BAFBF7FA0AFB0CFACA
:104CE000BAFBF8F607E0DFF86CA2BAFBF7FA0AFBAA
:104CF0000CFABAFBF8F6B1F806A0BAF5007F0ED1AF
:104D00004FEA162A0AEB8A0A4FEA4A0AD1F808B093
:104D1000BAFBFBFA0AF1050A1FFA8AF20FE04FEA22
:104D2000491AB6FBFAFA0AEB8A0A4FEA4A0AD1F89C
:104D300008B0BAFBFBFA0AF1050A1FFA8AF24FF033
:104D40000A0AB2FBFAF202F00104A2EB040ACAF367
:104D50004F034FF6FF7A0AEA0424022B01DBFF2BF4
:104D600001DD02230024B1F806A04AEA040A4AEA57
:104D7000030AA0F820A0B1F804A0B1F80CB04AEAE8
:104D80000B0AB1F802B04AEA0B0AB1F800B04AEADD
:104D90000B0A4AF4006A4AEA05058583BDE8F08FEC
:104DA0000021018041808180C18001814181818118
:104DB000C1810721018270470021018041808180EB
:104DC000C1800221816000218181704721B1028868
:104DD00042F04002028004E002884FF6BF731A409E
:104DE0000280704721B1828B42F48062828304E0AA
:104DF000828B4FF6FF331A408283704702884FF24E
:104E0000FF731A40028002880A4302807047B1F59E
:104E1000804F04D1028842F48042028004E002887C
:104E20004BF6FF731A40028070474FF6FF629142C3
:104E300004D0028842F48072028004E002884FF6B7
:104E4000FF631A400280704721B1828842F0040259
:104E5000828004E082884FF6FB731A40828070479C
:104E600021B1828842F01002828004E082884FF6ED
:104E7000EF731A408280704730B500220023848B84
:104E80004FF240052C40848302240484828B0C88DA
:104E9000B4F5007F01D00C8814B94FF4807308E09A
:104EA0000C88B4F5407F03D00C88B4F5807F00D126
:104EB00000238C888D892C434D882C431C4344F45B
:104EC00000642243828330BD014688897047818116
:104ED000704721B1028842F40052028004E0028847
:104EE0004DF6FF731A4002807047018841F48051EB
:104EF0000180704702460020012901D0108B00E09C
:104F0000908A70470146088A70471AB183880B431C
:104F1000838002E083888B438380704730B5002410
:104F200000230C110125A540ABB2AAB185881D4311
:104F3000858014E00030014000380040003C004013
:104F40000034014000500140005401400838024044
:104F500000127A000024F40085889D43858030BDCE
:104F60000246002013890B400BB1012000E0002015
:104F70007047CA4302817047F0B502460020002402
:104F80000023002501F00F070126BE40B4B20B112B
:104F900001269E40B3B2968806EA0305168926408C
:104FA00016B10DB1012000E00020F0BD10B50022C7
:104FB00001F00F040123A3409AB2D343038110BD33
:104FC00010B50446FE48844208D101210846FFF787
:104FD000FAF900210120FFF7F6F99DE0B4F1804FC6
:104FE00008D101210846FFF7DDF900210120FFF774
:104FF000D9F991E0F348844208D101210220FFF75A
:10500000D1F900210220FFF7CDF985E0EE48844276
:1050100008D101210420FFF7C5F900210420FFF782
:10502000C1F979E0E948844208D101210820FFF75D
:10503000B9F900210820FFF7B5F96DE0E448844292
:1050400008D101211020FFF7ADF900211020FFF752
:10505000A9F961E0DF48844208D101212020FFF74F
:10506000A1F900212020FFF79DF955E0DA4884429C
:1050700008D101210220FFF7A6F900210220FFF745
:10508000A2F949E0D548844209D101210804FFF77B
:105090009AF900214FF48030FFF795F93CE0D048B1
:1050A000844209D101214804FFF78DF900214FF412
:1050B0000030FFF788F92FE0CA48844209D1012166
:1050C0008804FFF780F900214FF48020FFF77BF977
:1050D00022E0C548844208D101214020FFF762F94F
:1050E00000214020FFF75EF916E0C048844208D155
:1050F00001218020FFF756F900218020FFF752F9A7
:105100000AE0BB48844207D101218015FFF74AF924
:105110000021A015FFF746F910BD00220288A84B18
:1051200098420ED0AC4B98420BD0B0F1804F08D0D3
:10513000A44B984205D0A44B984202D0A34B98426E
:1051400004D14FF68F731A404B881A43A04B9842F4
:1051500007D0A04B984204D04FF6FF431A400B896A
:105160001A4302804B68C3620B880385944B9842B4
:1051700002D0994B984201D18B7A03860123838216
:1051800070474FF0FF314160002101800181418073
:10519000817270470185828270470A46002101882A
:1051A0004FF68F7319401143018070474162704779
:1051B000C16270470146486A70470146088D7047D2
:1051C00021B1028842F00202028004E002884FF618
:1051D000FD731A400280704721B1028842F0040238
:1051E000028004E002884FF6FB731A400280704789
:1051F00021B1028842F08002028004E002884FF66A
:105200007F731A400280704702884FF6F7731A4086
:10521000028002880A430280704702884FF6FF43EB
:105220001A40028002880A430280704721B1028836
:1052300042F00102028004E002884FF6FE731A4039
:105240000280704770B5002400220023058C4FF6C1
:10525000FE7635400584028C8388048B4FF68F756B
:105260002C40B51E2C400D882C43751E2A408D897C
:105270002A434D882A43524DA84202D0564DA84297
:1052800013D14FF6F7752A40CD892A434FF6FB75A7
:105290002A408D882A434FF6FF652B404FF6FF5575
:1052A0002B400D8A2B434D8A2B43838004838D68CA
:1052B0004563028470BD70B5002400220023058C74
:1052C0004FF6EF7635400584028C8388048B48F6D0
:1052D000FF752C404FF6FF452C400D884FF6FF76AA
:1052E00006EA05252C434FF6DF752A408D8906EA2C
:1052F00005152A434D8806EA05152A43304DA84274
:1053000002D0354DA8421DD14FF67F752A40CD8978
:105310004FF6FF7606EA05152A434FF6BF752A4079
:105320008D8806EA05152A434FF6FF352B404FF2CC
:10533000FF752B400D8A06EA85052B434D8A06EA48
:1053400085052B43838004838D688563028470BD4B
:1053500070B5002400220023058C4FF6FF6635400F
:105360000584028C8388848B4FF68F752C404FF612
:10537000FC752C400D882C434FF6FF552A408D8933
:105380004FF6FF7606EA05252A434D8806EA0525ED
:105390002A430B4DA84202D00F4DA84238D14FF2FC
:1053A000FF752A40CD894FF6FF7606EA05252A4388
:1053B0004FF6FF352A408D8806EA05252A4319E075
:1053C000000001400004004000080040000C0040C4
:1053D0000010004000140040000401400040014063
:1053E000004401400048014000180040001C0040FB
:1053F000002000404EF6FF752B404DF6FF752B4008
:105400000D8A06EA05152B434D8A06EA05152B433E
:10541000838084838D68C563028470BD70B500226B
:1054200000230024058C4EF6FF7635400584038C5E
:105430008488828B48F6FF752A404FF6FF452A4044
:105440000D884FF6FF7606EA05252A434DF6FF75CF
:105450002B408D8906EA05352B434D8806EA053534
:105460002B43FE4DA84202D0FD4DA84208D14BF679
:10547000FF752C400D8A4FF6FF7606EA85152C4302
:10548000848082838D680564038470BD002101805F
:105490004180818081608181C18101824182704728
:1054A00070B50346002000241846183001258D40B1
:1054B000ACB21D8CA5431D8409B108290AD100EBAB
:1054C000610005684FF68F76354005600568154325
:1054D00005600FE00D1FC5F34E052844056848F62A
:1054E000FF763540056005684FF6FF7606EA02262E
:1054F0003543056070BD4163704781637047C16388
:105500007047016470470A460021018B4FF68F7384
:1055100019401143018370470A460021018B48F668
:10552000FF7319404FF6FF7303EA02231943018307
:1055300070470A460021818B4FF68F731940114343
:10554000818370470A460021818B48F6FF7319401A
:105550004FF6FF7303EA02231943818370470A461B
:105560000021018B4FF6F7731940114301837047F7
:105570000A460021018B4FF2FF7319404FF6FF736B
:1055800003EA02231943018370470A460021818BF5
:105590004FF6F77319401143818370470A46002183
:1055A000818B4FF2FF7319404FF6FF7303EA02231A
:1055B0001943818370470A460021018B4FF6FB7324
:1055C00019401143018370470A460021018B4FF6B1
:1055D000FF3319404FF6FF7303EA02231943018397
:1055E00070470A460021818B4FF6FB731940114327
:1055F000818370470A460021818B4FF6FF331940A3
:105600004FF6FF7303EA02231943818370470A466A
:105610000021018B4FF67F731940114301837047BE
:105620000A460021018BC1F30E014FF6FF7303EA16
:1056300002231943018370470A460021818B4FF6EC
:105640007F7319401143818370470A460021818B83
:10565000C1F30E014FF6FF7303EA0223194381835E
:1056600070470A460021018C4FF6FD731940114323
:10567000018470470A460021018C4FF6F7731940E8
:105680001143018470470A460021018C4FF6DF73F5
:1056900019404FF6FF7303EA021319430184704760
:1056A0000A460021018C4FF67F7319404FF6FF73B5
:1056B00003EA02131943018470470A460021018C52
:1056C0004FF6FF5319404FF6FF7303EA02231943C5
:1056D000018470470A460021018C4FF2FF73194084
:1056E0004FF6FF7303EA02231943018470470A4609
:1056F0000021018C4DF6FF7319404FF6FF7303EA4A
:10570000023319430184704730B5002301248C40D3
:10571000A3B2048C9C430484048C02FA01F5ADB25C
:105720002C43048430BD30B5002304248C40A3B244
:10573000048C9C430484048C02FA01F5ADB22C4322
:10574000048430BD828B4FF2FF331A408283828BF8
:105750004FF6FF7303EA01231A4382837047F0B5C3
:105760000C461546002100220026078C4EF6FF7CD1
:1057700007EA0C070784818B028C4FF6FF7707EA54
:10578000043640F6FF4739404FF6FF7707EA052712
:1057900039434FF6FF7707EA0337394345F6FF777A
:1057A0003A4046F480573A4381830284F0BD828BAD
:1057B0004FF6F3731A408283828B0A4382837047C9
:1057C000F0B50C461546002100220026078C4FF646
:1057D000FF6C07EA0C070784818B028C4FF6FF777A
:1057E00007EA04264FF60C7739404FF6FF7707EAB1
:1057F00003172F4339434FF2FF573A4046F480775F
:105800003A4381830284F0BD028B4FF2FF331A408A
:105810000283028B4FF6FF7303EA01231A430283CC
:105820007047F0B50C461546002100220026078C73
:105830004FF6EF7C07EA0C070784018B028C4FF6CA
:10584000FF7707EA041640F6FF4739404FF6FF7727
:1058500007EA033739434FF6FF7703E000000140C2
:105860000004014007EA052739434FF65F773A40C5
:1058700046F010073A4301830284F0BD028B4FF6D5
:10588000F3731A400283028B0A4302837047F0B518
:105890000C46154600210022068C4FF6FE773E404E
:1058A0000684018B028C4FF60C7631407E1C06EA92
:1058B00003162E4331434FF6F576324044F001068D
:1058C000324301830284F0BD70B505460C46208842
:1058D00050B92389A28861882846FFF7D8FFE1885C
:1058E0002846FFF7CBFF25E0208804280AD123892A
:1058F000A28861882846FFF794FFE1882846FFF7D1
:1059000083FF17E0208808280AD12389A2886188AC
:105910002846FFF755FFE1882846FFF748FF09E0D2
:105920002389A28861882846FFF719FFE188284665
:10593000FFF708FF70BD00210180418001218180B7
:105940000021C180018170472DE9F04105460C46D8
:1059500000260127608808B9022600E00026A088FA
:10596000012801D1022700E001272088A0B923895E
:10597000A28861882846FFF78AFFE1882846FFF75A
:105980007DFF23893A4631462846FFF74AFFE188E2
:105990002846FFF739FF13E02389A288618828464B
:1059A000FFF73FFFE1882846FFF72EFF23893A469D
:1059B00031462846FFF76BFFE1882846FFF75EFF78
:1059C000BDE8F0810146486B70470146886B70471F
:1059D0000146C86B70470146086C70470A884B88BF
:1059E0001A438B881A43CB881A430B891A434B8975
:1059F0001A438B891A43A0F8442070470021018084
:105A000041808180C180018141818181704731B1B4
:105A1000B0F8442042F40042A0F8442005E0B0F879
:105A20004420C2F30E02A0F84420704721B18288BE
:105A300042F00402828004E082884FF6FB731A4031
:105A40008280704721B1828842F00102828004E0A6
:105A500082884FF6FE731A40828070471AB183899C
:105A60000B43838102E083898B438381704781826A
:105A7000704702460020138A0B400BB1012000E062
:105A800000207047CA430282704730B502460020AA
:105A900000230024158A05EA0103958905EA01041B
:105AA00013B10CB1012000E0002030BDCA430282D6
:105AB000704741EA0203A0F8483070471AB1838961
:105AC0000B43838102E083898B438381704721B13B
:105AD000828842F00802828004E082884FF6F773E1
